:020000041000EA
:1000000000B5324B212058609868022188439860DF
:10001000D860186158612E4B002199600221596106
:100020000121F02299502B49196001219960352056
:1000300000F044F80222904214D00621196600F024
:1000400034F8196E01211966002018661A6600F04E
:100050002CF8196E196E196E052000F02FF8012189
:100060000842F9D1002199601B49196000215960AB
:100070001A491B48016001219960EB211966A021F2
:10008000196600F012F800219960164914480160C1
:100090000121996001BC002800D000471248134993
:1000A000086003C880F30888084703B5996A0420EC
:1000B0000142FBD001200142F8D103BD02B5186610
:1000C0001866FFF7F2FF186E186E02BD00000240BE
:1000D000000000180000070000035F00212200005C
:1000E000F4000018222000A00001001008ED00E03C
:1000F00000000000000000000000000074B24E7A12
:08010000000004200D010010B5
:0401080000000420CF
:10010C000248854600F004F8FEE7000000000420D9
:10011C0080B500AF104B1A680F4B20218A431A6030
:10012C000D4B1A680C4B0D490A401A60C0460C4B1B
:10013C001A6890235B001A4090235B009A42F6D118
:10014C00084B05221A60084B802292021A60074B5A
:10015C00802292021A60FAE700C00040FFFEFFFF07
:10016C0008C000408C400140240000D0140000D096
:0400000510000000E7
:00000001FF
