:020000041000EA
:1000000000B5324B212058609868022188439860DF
:10001000D860186158612E4B002199600221596106
:100020000121F02299502B49196001219960352056
:1000300000F044F80222904214D00621196600F024
:1000400034F8196E01211966002018661A6600F04E
:100050002CF8196E196E196E052000F02FF8012189
:100060000842F9D1002199601B49196000215960AB
:100070001A491B48016001219960EB211966A021F2
:10008000196600F012F800219960164914480160C1
:100090000121996001BC002800D000471248134993
:1000A000086003C880F30888084703B5996A0420EC
:1000B0000142FBD001200142F8D103BD02B5186610
:1000C0001866FFF7F2FF186E186E02BD00000240BE
:1000D000000000180000070000035F00212200005C
:1000E000F4000018222000A00001001008ED00E03C
:1000F00000000000000000000000000074B24E7A12
:08010000000004200D010010B5
:0401080000000420CF
:10010C000248854600F004F8FEE7000000000420D9
:10011C0080B500AF00F008F8024B802292021A6002
:10012C00FAE7C046140000D080B500AF0F4B1A6838
:10013C000E4B20218A431A600C4B1A680B4B0C494E
:10014C000A401A60C0460B4B1A6890235B001A4099
:10015C0090235B009A42F6D1074B05221A60074B9D
:10016C00802292021A60C046BD4680BD00C000408D
:10017C00FFFEFFFF08C000408C400140240000D06F
:0400000510000000E7
:00000001FF
